:020000040000FA
:100000000C945E000C9419050C94F2040C94860078
:100010000C9486000C9486000C9486000C94400589
:100020000C9486000C9486000C9486000C94860038
:100030000C9486000C9486000C9486000C94860028
:100040000C94A8040C9486000C94C2050C949C0596
:100050000C9486000C9486000C9486000C94860008
:100060000C9486000C9486000200000000240027F7
:10007000002A0000000000250028002B00040404D2
:100080000404040404020202020202030303030341
:10009000030102040810204080010204081020011E
:1000A0000204081020000000080002010000030400
:1000B00007000000000000000000F40511241FBE2E
:1000C000CFEFD8E0DEBFCDBF12E0A0E0B1E0EAE2C2
:1000D000FAE102C005900D92AE31B107D9F723E0E5
:1000E000AEE1B2E001C01D92AD32B207E1F710E01F
:1000F000CEE5D0E004C02197FE010E940D0DCD3564
:10010000D107C9F70E943E060C94130D0C94000011
:1001100090E0FC01EB55FF4F2491FC01EF56FF4F9F
:100120003491FC01E358FF4FE491EE23C9F0222300
:1001300039F0233001F1A8F4213019F1223029F1EE
:10014000F0E0EE0FFF1FED58FF4FA591B4918FB770
:10015000F894EC91611126C030953E233C938FBFFB
:1001600008952730A9F02830C9F0243049F780914C
:1001700080008F7D03C0809180008F778093800006
:10018000DFCF84B58F7784BDDBCF84B58F7DFBCF88
:100190008091B0008F778093B000D2CF8091B00073
:1001A0008F7DF9CF3E2BDACFCF93DF9390E0FC0128
:1001B000EF56FF4F249183589F4FFC018491882371
:1001C000C9F090E0880F991FFC01E759FF4FA591F6
:1001D000B491FC01ED58FF4FC591D49161110DC050
:1001E0009FB7F8948C91209582238C938881282343
:1001F00028839FBFDF91CF910895623051F49FB75C
:10020000F8943C91822F809583238C93E8812E2B48
:10021000EFCF8FB7F894EC912E2B2C938FBFEACFB2
:100220008E50806480937C0080917A0080648093FB
:100230007A0080917A0086FDFCCF809178009091C1
:10024000790008953FB7F8948091740290917502F7
:10025000A0917602B091770226B5A89B05C02F3FEA
:1002600019F00196A11DB11D3FBFBA2FA92F982FDC
:100270008827BC01CD01620F711D811D911D42E0D7
:10028000660F771F881F991F4A95D1F708958F929F
:100290009F92AF92BF92CF92DF92EF92FF924B016B
:1002A0005C010E9422016B017C010E9422016C19F9
:1002B0007D098E099F09683E734081059105A8F369
:1002C00021E0821A9108A108B10888EEC80E83E0E7
:1002D000D81EE11CF11C81149104A104B10429F77A
:1002E000FF90EF90DF90CF90BF90AF909F908F9056
:1002F00008952FB7F8946091700270917102809107
:100300007202909173022FBF089581E080933702AB
:10031000089508959091440189130BC0E8E6F0E038
:10032000E4919FEF90934401E13049F028F0E230EE
:1003300061F060E00C94880010926E00FACF90910A
:100340006F009D7F90936F00F4CF909170009D7F20
:100350009093700091E09093B0009091B100987FDD
:1003600094609093B1001092B300E3CFAF92BF922C
:10037000CF92DF92EF92FF920F931F93CF93DF9371
:100380006C017B018B01040F151FEB015E01AE18A0
:10039000BF08C017D10759F06991D601ED91FC91C2
:1003A0000190F081E02DC6010995892B79F7C501EF
:1003B000DF91CF911F910F91FF90EF90DF90CF9041
:1003C000BF90AF900895FC01538D448D252F30E0F0
:1003D000842F90E0821B930B541710F0CF96089552
:1003E00001970895FC01918D828D981761F0A28D7F
:1003F000AE0FBF2FB11D5D968C91928D9F5F9F7345
:10040000928F90E008958FEF9FEF0895FC01918DFA
:10041000828D981731F0828DE80FF11D858D90E067
:1004200008958FEF9FEF0895FC01918D228D892F04
:1004300090E0805C9F4F821B91098F7399270895EC
:1004400088E792E00E94140221E0892B09F420E061
:10045000822F089580E090E0892B29F00E942002ED
:1004600081110C9400000895FC01A48DA80FB92FF0
:10047000B11DA35ABF4F2C91848D90E001968F73CC
:100480009927848FA689B7892C93A089B1898C91EB
:10049000837080648C93938D848D981306C002883A
:1004A000F389E02D80818F7D80830895EF92FF9204
:1004B0000F931F93CF93DF93EC0181E0888F9B8D87
:1004C0008C8D98131AC0E889F989808185FF15C041
:1004D0009FB7F894EE89FF896083E889F989808164
:1004E0008370806480839FBF81E090E0DF91CF9133
:1004F0001F910F91FF90EF900895F62E0B8D10E055
:100500000F5F1F4F0F731127E02E8C8D8E110CC0C3
:100510000FB607FCFACFE889F989808185FFF5CF0E
:10052000CE010E943402F1CFEB8DEC0FFD2FF11DB7
:10053000E35AFF4FF0829FB7F8940B8FEA89FB894B
:1005400080818062CFCFCF93DF93EC01888D8823A9
:10055000B9F0AA89BB89E889F9898C9185FD03C026
:10056000808186FD0DC00FB607FCF7CF8C9185FF0B
:10057000F2CF808185FFEDCFCE010E943402E9CF1A
:10058000DF91CF910895089590E080E008958F92D3
:100590009F92AF92BF920F931F93CF93DF93CDB7EC
:1005A000DEB7A1970FB6F894DEBF0FBECDBF19A27C
:1005B000423008F44AE08E010F5D1F4F842E912CCB
:1005C000B12CA12CA50194010E94DC0CE62FB901ED
:1005D000CA01EA3044F5E05DD801EE938D01232B8A
:1005E000242B252B79F790E080E0109769F0FD012E
:1005F00001900020E9F73197AF014A1B5B0BBD0169
:1006000085E193E00E94B601A1960FB6F894DEBF93
:100610000FBECDBFDF91CF911F910F91BF90AF90D3
:100620009F908F900895E95CD7CFFC010190002046
:10063000E9F73197AF01481B590BBC0185E193E005
:100640000C94B601CF93DF93EC0160E08E810E94A1
:10065000880061E08E810E94880060E08E810E94A7
:1006600088008BE891E00197F1F7DF91CF91089531
:10067000CF92DF92EF92FF920F931F93CF93DF936E
:100680006C017C0187E0E80EF11CD0E0C0E0062F91
:1006900010E0B8010C2E02C0759567950A94E2F738
:1006A0006170F70181917F010E9488002196C4301A
:1006B000D10579F7C601DF91CF911F910F91FF907E
:1006C000EF90DF90CF900C942203CF92DF92EF92C5
:1006D000FF920F931F93CF93DF93EC01F62E642FBD
:1006E0008C810E9488008D818F3F19F060E00E940C
:1006F00088000F2D10E08F8584FF25C06E0187E0F4
:10070000C80ED11CF12CE12CB8010E2C02C075953D
:1007100067950A94E2F76170F60181916F010E947A
:100720008800FFEFEF1AFF0A88E0E816F10461F78E
:10073000CE01DF91CF911F910F91FF90EF90DF904D
:10074000CF900C942203B80184E0759567958A9543
:10075000E1F7CE010E9438036F2DCE01DF91CF91DA
:100760001F910F91FF90EF90DF90CF900C94380382
:1007700040E0682F85E193E00C94650381E00E94DE
:10078000B8038BE39FE10197F1F70895CF93DF93CF
:10079000823029F4909124039860909324038093ED
:1007A00028031092290380E480932A0380E1809338
:1007B0002B0380E580932C0361E0809119030E9454
:1007C000D40080911A038F3F19F061E00E94D40099
:1007D00061E080911B030E94D400C5E1D3E09E013B
:1007E000255133408091240384FD0BC084E090E0C8
:1007F00021962817390744F461E08E810E94D400C5
:10080000EECF88E090E0F4CF8BE39DE00197F1F725
:1008100060E0809119030E94880060E080911B03D2
:100820000E94880080911A038F3F19F060E00E94B7
:1008300088008091240384FD34C063E085E193E067
:100840000E943803CBE4D6E4CE010197F1F763E0D0
:1008500085E193E00E9438032197F1F763E085E199
:1008600093E00E94380383E592E00197F1F762E09C
:1008700085E193E00E9438038091240380620E9406
:10088000B80384E0809325038CE00E94B8030E94A3
:10089000BE0382E08093260386E0DF91CF910C9423
:1008A000B80380620E94B8038BE496E40197F1F7E5
:1008B0008091240380620E94B80383E592E001974F
:1008C000F1F78091240380620E94B803D5CF643091
:1008D00008F063E090912803691710F06FEF690F3B
:1008E000E62FF0E0EB5EFC4F9489890F80680C9452
:1008F000B80341E00E94650381E090E00895CF9243
:10090000DF92EF92FF926C01990FEE08FF08F7FE5D
:1009100016C041E06DE285E193E00E946503662721
:100920007727CB016C197D098E099F094AE00E9447
:10093000C7020196FF90EF90DF90CF9008954AE0B4
:10094000C701B601FF90EF90DF90CF900C94C702E3
:100950001F920F920FB60F9211242F933F938F93F4
:100960009F93AF93BF938091700290917102A09179
:100970007202B091730230916F0223E0230F2D3782
:1009800058F50196A11DB11D20936F02809370024E
:1009900090937102A0937202B093730280917402DB
:1009A00090917502A0917602B09177020196A11DF7
:1009B000B11D8093740290937502A0937602B09358
:1009C0007702BF91AF919F918F913F912F910F909F
:1009D0000FBE0F901F90189526E8230F0296A11DB9
:1009E000B11DD2CF1F920F920FB60F9211242F93E9
:1009F0003F934F935F936F937F938F939F93AF93A7
:100A0000BF93EF93FF93E0910201F09103010995E9
:100A1000FF91EF91BF91AF919F918F917F916F91D6
:100A20005F914F913F912F910F900FBE0F901F90AC
:100A300018951F920F920FB60F9211242F933F9388
:100A40004F935F936F937F938F939F93AF93BF93D6
:100A5000EF93FF93E0910001F09101010995FF915F
:100A6000EF91BF91AF919F918F917F916F915F9126
:100A70004F913F912F910F900FBE0F901F9018959F
:100A80001F920F920FB60F9211242F933F934F9303
:100A90005F936F937F938F939F93AF93BF93EF93E6
:100AA000FF938091230290912402A0912502B0919E
:100AB0002602892B8A2B8B2BD1F190911E02E0917B
:100AC0001F02F09120028081892780838091230278
:100AD00090912402A0912502B091260218161906C1
:100AE0001A061B069CF48091230290912402A09187
:100AF0002502B09126020197A109B1098093230232
:100B000090932402A0932502B0932602FF91EF91C7
:100B1000BF91AF919F918F917F916F915F914F9115
:100B20003F912F910F900FBE0F901F9018958091BD
:100B300044010E948A01EACF1F920F920FB60F92D2
:100B400011242F933F934F935F936F937F938F93D2
:100B50009F93AF93BF93EF93FF9388E792E00E9438
:100B60003402FF91EF91BF91AF919F918F917F914F
:100B70006F915F914F913F912F910F900FBE0F900A
:100B80001F9018951F920F920FB60F9211242F935A
:100B90008F939F93EF93FF93E0918802F0918902E6
:100BA0008081E0918E02F0918F0282FD1BC09081C6
:100BB000809191028F5F8F7320919202821741F092
:100BC000E0919102F0E0E858FD4F958F80939102FB
:100BD000FF91EF919F918F912F910F900FBE0F90EA
:100BE0001F9018958081F4CFE8E7F2E0138212821B
:100BF00088EE93E0A0E0B0E084839583A683B7837A
:100C000083EA91E09183808385EC90E095878487E7
:100C100084EC90E09787868780EC90E0918B808BC6
:100C200081EC90E0938B828B82EC90E0958B848BAF
:100C300086EC90E0978B868B118E128E138E148E1D
:100C4000E5E1F3E01382128285EB91E091838083EA
:100C50008AE084838FEF858388E0868387E08783BB
:100C600086E0808785E0818784E08287138614860A
:100C700015861686178681E00C94C603789484B591
:100C8000826084BD84B5816084BD85B5826085BD88
:100C900085B5816085BD80916E00816080936E0016
:100CA0001092810080918100826080938100809108
:100CB00081008160809381008091800081608093B9
:100CC00080008091B10084608093B1008091B00079
:100CD00081608093B00080917A00846080937A0074
:100CE00080917A00826080937A0080917A0081609E
:100CF00080937A0080917A00806880937A001092C5
:100D0000C100E0918802F091890282E08083E09145
:100D10008402F09185021082E0918602F0918702B0
:100D20008FEC808310929002E0918C02F0918D0202
:100D300086E08083E0918A02F0918B02808180615D
:100D40008083E0918A02F0918B02808188608083A9
:100D5000E0918A02F0918B02808180688083E0912B
:100D60008A02F0918B0280818F7D808382E00E94D5
:100D7000C60360E090E080E00E949C0C62E083E0AB
:100D80000E94D40085E891E09093030180930201D2
:100D900080916900837F886080936900E99A60E0B0
:100DA0008FE00E94D40060E08EE00E94D40081E1D8
:100DB0000E941001BC01990F880B990B61157105F8
:100DC0008105910511F00E948B0C04E011E0C0E058
:100DD0008C2F80640E94B803780128E0E20EF11C99
:100DE000D8016D918D0185E193E00E9479040E1583
:100DF0001F05B1F7C85FC03459F761E089E00E9470
:100E0000D40089E00E948A0122242394312C0E947C
:100E100079014B015C018091590290915A02843111
:100E200091050CF064C2209158022111C0C0880FB6
:100E3000991F880F991FFC01E15BFE4FC080D18094
:100E400080914401893009F02FC1E8E6F0E0C491B7
:100E5000C7FDA2C061E089E00E94D400CC2319F054
:100E6000C23009F0F1C1F12CE12C60E072E18AE7B7
:100E700090E0A70196010E94AA0C29013A01DA012B
:100E8000C9010197A109B1098F3F9105A105B105DC
:100E900009F00CF4BDC160E472E48FE090E0A701BA
:100EA00096010E94AA0C2150310941095109C23012
:100EB00009F06FC182E02F3F31054105510509F06E
:100EC0000CF45BC060E970ED83E090E0A70196014F
:100ED0000E94AA0C215031094109510983E02F3F9A
:100EE00031054105510509F00CF447C068E478EE7E
:100EF00081E090E0A70196010E94AA0C21503109DF
:100F00004109510984E02F3F310541055105A9F1FF
:100F1000A4F164E274EF80E090E0A70196010E94E2
:100F2000AA0C215031094109510985E02F3F3105B3
:100F30004105510511F108F162E17AE780E090E0A6
:100F4000A70196010E94AA0C2150310941095109BB
:100F500086E02F3F31054105510579F070F09AE0A8
:100F600075946794579447949A95D1F7A301920189
:100F7000215031094109510987E09091B100987FD2
:100F8000892B8093B100C13009F489C1C23009F4C2
:100F90009BC1CC2309F444C180922F02909230026D
:100FA000A0923102B092320281E080935802C09147
:100FB0005902D0915A0280912F0290913002A09153
:100FC0003102B0913202881A990AAA0ABB0AFE01BC
:100FD000EE0FFF1FEE0FFF1FE15BFE4F828193813B
:100FE000092E000CAA0BBB0B88169906AA06BB0695
:100FF00050F089E00E948A012196D0935A02C09352
:1010000059021092580280916D0290916E020097E1
:1010100009F097C190E080E00E94940C90E09093DA
:101020006A02809369020E94BE0360E080E00E9431
:1010300067048DEB91E00E94150361E089E00E9456
:1010400067048CEC91E00E94150360ED77E080E08E
:1010500090E00E9447010E94BE0364EF71E080E0CF
:1010600090E00E94470160E080E00E94670480E019
:1010700092E00E9415038091690290916A020E9499
:101080007F0461E080E00E94670484ED91E00E94AB
:1010900015038091370281112FC162E370E080E077
:1010A00090E00E944701F5CF8F3F09F075CF89E0AE
:1010B00080934401E8E6F0E0C491CF3F09F46CCF9F
:1010C000C13029F150F0C23009F440C0C7FD64CFEF
:1010D00061E089E00E94D400C3CE14BC15BC84B585
:1010E000826084BD85B5816085BDE6E8F0E08491CD
:1010F000E82FF0E0EE0FFF1FED58FF4F8591949120
:10110000EAE9F0E0849180932202C0E0A3CE10923D
:10111000800010928100809181008860809381001E
:1011200080918100816080938100E6E8F0E0849105
:10113000E82FF0E0EE0FFF1FED58FF4F85919491DF
:10114000EAE9F0E084918093210284CE1092B0000D
:101150001092B1008091B00082608093B0008091C5
:10116000B10081608093B100E6E8F0E08491E82F5F
:10117000F0E0EE0FFF1FED58FF4F85919491909393
:10118000200280931F02EAE9F0E0849180931E021E
:1011900061CE2F3F31054105510509F00CF452C0D5
:1011A00068E478EE81E090E0A70196010E94AA0C25
:1011B000215031094109510984E0C111B7CE83E0C2
:1011C0002F3F31054105510539F134F162E17AE7EC
:1011D00080E090E0A70196010E94AA0C21503109FD
:1011E0004109510984E02F3F310541055105A1F026
:1011F00098F08AE075946794579447948A95D1F74C
:10120000A3019201215031094109510985E004C02F
:101210009C0181E0C111B1CE95B5987F892B85BD28
:1012200027BD8FEF9FEFDC0180932B0290932C0260
:10123000A0932D02B0932E0280916E008260809365
:101240006E00AACE82E0E6CFF12CE12C60E072E1E4
:101250008AE790E0A70196010E94AA0C215031096B
:101260004109510991E021153105F1E04F07510580
:101270006CF068E478EE81E090E0A70196010E94AE
:10128000AA0C215031094109510993E0C13009F0FC
:101290007ACE80918100887F892B80938100309362
:1012A0008900209388008FEF9FEFDC018093270255
:1012B00090932802A0932902B0932A0280916F0094
:1012C000826080936F0068CE2093B3008FEF9FEF12
:1012D000DC018093230290932402A0932502B09313
:1012E00026028091700082608093700055CE10922B
:1012F0005A021092590287CE1092370230926E0233
:1013000020926D020E94BE0360E080E00E946704AC
:10131000E8E4F2E0A8E3B2E088E592E020E221937D
:101320002D938E179F07D9F780E090E0892B09F461
:101330006ECD0E942002882309F466CD0E94000031
:1013400063CD019709F078C1809133029091340206
:10135000A0913502B0913602892B8A2B8B2B51F448
:101360000E947901609333027093340280933502B6
:10137000909336028FE00E941001EC018EE00E94F3
:1013800010018039A1E09A070CF015C11092680293
:10139000109267020E94790100915F021091600231
:1013A0002091610230916202601B710B820B930BE2
:1013B0006739710581059105D8F0809149019091B7
:1013C0004A01C039E1E0DE070CF0FEC0181619062C
:1013D0007CF4019790934A01809349010E9479011E
:1013E00060935F0270936002809361029093620247
:1013F000D0916702C09149016D2F8C2F0E94670424
:1014000060E085E193E00E9479046D2F8C2F0E94AB
:10141000670461E085E193E00E9479046D2F81E02B
:101420008C0F0E94670462E085E193E00E947904DA
:101430000E9479010091630210916402209165027B
:1014400030916602AB01BC01401B510B620B730B68
:101450008091470190914801092E000CAA0BBB0B0B
:1014600084179507A607B70708F05ECF0E94790199
:1014700060936302709364028093650290936602A6
:10148000C0904501D09046010D2C000CEE08FF08DD
:1014900060E070E0CB011C141D041E041F0434F432
:1014A0000E943C0CA70196010E94AA0C61157105CF
:1014B00009F094C08AE28093570280E28093470249
:1014C0000E94790100915B0210915C0220915D0203
:1014D00030915E02601B710B820B930B69357B416F
:1014E0008105910510F18091470190914801853661
:1014F0009105DCF0C2979093480180934701809159
:10150000450190914601833091052CF0019790930D
:101510004601809345010E94790160935B027093BC
:101520005C0280935D0290935E0208E412E0C8E3DF
:10153000D2E087E592E0DE01F80121812193119646
:101540002C9111972D938E179F07B9F780E2809306
:10155000570280934702809167029091680200973A
:1015600009F045C0E0914901F0914A01E85BFD4F67
:1015700081818A3209F044C00E94790100913302CE
:10158000109134022091350230913602601B710BAC
:10159000820B930B28EE33E040E050E00E94DC0C1D
:1015A00030936C0220936B0282E090E090936E0285
:1015B00080936D02B9CE893592400CF4EBCE309217
:1015C000680220926702E6CEC935D2400CF410CFF3
:1015D0008B3091050CF00CCF0196FCCE80E280930D
:1015E00057026130710509F069CF8AE267CF019730
:1015F00039F4E0914901F0914A01E85CFD4FB8CF20
:10160000F12C60E08F2D0E946704D8016D918D014F
:1016100041E085E193E00E94650361E08F2D0E9427
:101620006704699141E085E193E00E946503F394CA
:10163000B0E1FB12E6CF78CE0E94BE0360E083E00B
:101640000E94670487EE91E00E94150368EE73E044
:1016500080E090E00E94470161E080E00E94670422
:1016600081EF91E00E94150380916B0290916C02D2
:101670000E947F0460ED77E080E090E00E944701E7
:1016800080916B0290916C022091690230916A0204
:101690002817390724F590936A02809369020E9403
:1016A000BE0360E080E00E9467048AEF91E00E9440
:1016B000150361E080E00E94670480916B029091C5
:1016C0006C020E947F046091690290E080E00E94B9
:1016D0009C0C60ED77E080E090E00E9447010E9462
:1016E000BE0360E080E00E94670480E092E00E9418
:1016F000150390E080E00E94940C682F70E090E069
:1017000080E04AE00E94C70261E080E00E94670436
:1017100089E092E00E94150360ED77E080E090E0C0
:101720000E94470130924A012092490110926802BA
:1017300010926702ECE2F1E0F0934801E093470178
:1017400086E090E0909346018093450110926302F9
:1017500010926402109265021092660210925F026B
:1017600010926002109261021092620210925B026B
:1017700010925C0210925D0210925E0210925A0268
:10178000109259021092580289E00E948A01E8E4FE
:10179000F2E0A8E3B2E080E281938D9392E0E83535
:1017A000F907D1F780913702811107C062E370E039
:1017B00080E090E00E944701F5CF10926C021092F9
:1017C0006B02109233021092340210923502109282
:1017D00036021092370230926E0220926D02A4CD32
:1017E0008F929F92AF92BF92CF92DF92EF92FF9231
:1017F000CF93DF93EC01688179818A819B816115A8
:1018000071058105910521F464E279ED8BE597E09E
:101810002DE133EF41E050E00E94AA0C49015A014A
:101820009B01AC01A7EAB1E40E94C90C6B017C01E9
:10183000ACEEB4EFA50194010E94D70CC60ED71EE2
:10184000E81EF91EF7FE06C081E0C81AD108E108BB
:1018500080E8F80AC882D982EA82FB82C701B60111
:101860009F77DF91CF91FF90EF90DF90CF90BF9067
:10187000AF909F908F9008958F929F92AF92BF925A
:10188000CF92DF92EF92FF9260914B0170914C01E9
:1018900080914D0190914E01611571058105910571
:1018A00021F464E279ED8BE597E02DE133EF41E03F
:1018B00050E00E94AA0C49015A019B01AC01A7EA21
:1018C000B1E40E94C90C6B017C01ACEEB4EFA50140
:1018D00094010E94D70CC60ED71EE81EF91EF7FE13
:1018E00006C081E0C81AD108E10880E8F80AC09271
:1018F0004B01D0924C01E0924D01F0924E01C70194
:10190000B6019F77FF90EF90DF90CF90BF90AF90A0
:101910009F908F90089560934B0170934C0180933A
:101920004D0190934E010895F999FECF92BD81BD6E
:10193000F89A992780B50895262FF999FECF1FBAF6
:1019400092BD81BD20BD0FB6F894FA9AF99A0FBEE8
:1019500001960895052E97FB1EF400940E94C10C79
:1019600057FD07D00E94DC0C07FC03D04EF40C940A
:10197000C10C50954095309521953F4F4F4F5F4F8B
:10198000089590958095709561957F4F8F4F9F4FEB
:1019900008950E94FE0CA59F900DB49F900DA49FEA
:1019A000800D911D11240895B7FF0C94C90C0E945D
:1019B000C90C821B930B0895A1E21A2EAA1BBB1B14
:1019C000FD010DC0AA1FBB1FEE1FFF1FA217B3070B
:1019D000E407F50720F0A21BB30BE40BF50B661F21
:1019E000771F881F991F1A9469F7609570958095E5
:1019F00090959B01AC01BD01CF010895A29FB0015C
:101A0000B39FC001A39F700D811D1124911DB29F32
:101A1000700D811D1124911D0895EE0FFF1F05907B
:101A2000F491E02D0994F894FFCF89018901000613
:101A30000F1F0F06001F0000060F0600001F0C04FA
:101A40001E0F1E040C0E000000000000000000002D
:101A50000000000000000000000000000000000086
:101A60000000000000000000000000000000FF0671
:101A7000002C01010001000000C4009001DC00C83E
:101A800000C4009001A5002003C4009001DC00C840
:101A900000C4009001A50020032601200326019028
:101AA00001F70020030601200388019001C40020F3
:101AB00003DC002003DC00900106019001F700C860
:101AC00000DC009001C4009001000000005602B646
:101AD00001E301A3021402F20106020000000079F2
:101AE00004B601C402C3024D494E4920535041433C
:101AF00045534849500041524455494E4F00436CAC
:101B000069636B207061726120696E6963696172DB
:101B10000047414D45204F5645520050554E544FB9
:101B2000533A20004E7565766F205265636F72647C
:101B30003A2000436C69636B2070617261207265AA
:081B4000696E696369617200BE
:107E0000112484B714BE81FFF0D085E080938100F7
:107E100082E08093C00088E18093C10086E0809377
:107E2000C20080E18093C4008EE0C9D0259A86E02C
:107E300020E33CEF91E0309385002093840096BBD3
:107E4000B09BFECF1D9AA8958150A9F7CC24DD24C4
:107E500088248394B5E0AB2EA1E19A2EF3E0BF2EE7
:107E6000A2D0813461F49FD0082FAFD0023811F036
:107E7000013811F484E001C083E08DD089C08234E0
:107E800011F484E103C0853419F485E0A6D080C0E4
:107E9000853579F488D0E82EFF2485D0082F10E0AE
:107EA000102F00270E291F29000F111F8ED06801E7
:107EB0006FC0863521F484E090D080E0DECF843638
:107EC00009F040C070D06FD0082F6DD080E0C81688
:107ED00080E7D80618F4F601B7BEE895C0E0D1E017
:107EE00062D089930C17E1F7F0E0CF16F0E7DF06D8
:107EF00018F0F601B7BEE89568D007B600FCFDCFD4
:107F0000A601A0E0B1E02C9130E011968C91119780
:107F100090E0982F8827822B932B1296FA010C0160
:107F200087BEE89511244E5F5F4FF1E0A038BF0790
:107F300051F7F601A7BEE89507B600FCFDCF97BE46
:107F4000E89526C08437B1F42ED02DD0F82E2BD052
:107F50003CD0F601EF2C8F010F5F1F4F84911BD097
:107F6000EA94F801C1F70894C11CD11CFA94CF0C13
:107F7000D11C0EC0853739F428D08EE10CD085E9AC
:107F80000AD08FE07ACF813511F488E018D01DD067
:107F900080E101D065CF982F8091C00085FFFCCF94
:107FA0009093C60008958091C00087FFFCCF809118
:107FB000C00084FD01C0A8958091C6000895E0E648
:107FC000F0E098E1908380830895EDDF803219F02E
:107FD00088E0F5DFFFCF84E1DECF1F93182FE3DFCA
:107FE0001150E9F7F2DF1F91089580E0E8DFEE27F6
:047FF000FF270994CA
:027FFE00040479
:00000001FF
